:020000040800F2
:1000000000500020F5190008FD180008FF1800082E
:100010000119000803190008051900080000000074
:1000200000000000000000000000000007190008A8
:1000300009190008000000000B1900080D1900083C
:100040003D1A00083D1A00083D1A00083D1A000834
:100050003D1A00083D1A00083D1A00083D1A000824
:100060003D1A00083D1A00083D1A00083D1A000814
:100070003D1A00083D1A0008111900081D19000852
:100080003D1900085D1900083D1A00083D1A0008D6
:100090003D1A00083D1A00083D1A00083D1A0008E4
:1000A0003D1A00083D1A00083D1A00083D1A0008D4
:1000B0003D1A00083D1A00083D1A00083D1A0008C4
:1000C0003D1A00083D1A00083D1A00083D1A0008B4
:1000D0003D1A000869190008891900083D1A00082E
:1000E0003D1A00083D1A00083D1A000800000000F3
:1000F0000000000000000000000000000000000000
:0C01000000000000000000005FF808F1A3
:10010C0010B5054C237833B9044B13B10448AFF345
:10011C0000800123237010BD10000020000000009F
:10012C00B01A000808B5034B1BB103490348AFF3E1
:10013C00008008BD0000000014000020B01A000868
:10014C0038B50E4B054618784FF47A73B3FBF0F3C1
:10015C000B4A1068B0FBF3F000F0A0F8044658B955
:10016C000F2D09D8024629464FF0FF3000F054F805
:10017C00044B20461D6038BD012038BD0000002016
:10018C000C00002004000020074A08B51368032067
:10019C0043F01003136000F02DF80020FFF7D0FFA0
:1001AC0001F0AAFA002008BD00200240034A044BCB
:1001BC0011681B780B441360704700BF300000209F
:1001CC0000000020014B1868704700BF3000002071
:1001DC0038B50446FFF7F6FF0546631C1EBF044BFB
:1001EC001B78E418FFF7EEFF401B8442FAD838BDA9
:1001FC0000000020074A0002D36800F4E06023F4FA
:10020C00E0631B041B0C43F0BF6343F40033034354
:10021C00D360704700ED00E0174B30B5DC68C4F3D9
:10022C000224C4F10703251D042B28BF0423062D2B
:10023C004FF0010598BF002405FA03F303F1FF33D7
:10024C0088BF033C1940A14005FA04F4013C22404C
:10025C00002842EA01024FEA0212A9BF00F16040F5
:10026C00064BD2B200F56140BBBF00F00F00D2B21A
:10027C0080F800231A5430BD00ED00E014ED00E0CE
:10028C00002808DB0123420900F01F0003FA00F0EC
:10029C00014B43F82200704700E100E00138B0F157
:1002AC00807F0AD2F021064B064A586082F8231050
:1002BC000020072298601A6070470120704700BF29
:1002CC0010E000E000ED00E010B530B3142201683E
:1002DC00134B84680B44B3FBF2F39B000364114B88
:1002EC000A68C363436822F47F522343C46822F034
:1002FC003002234304692343446923438469234321
:10030C00C469234313430B600122002380F821208E
:10031C00836380F82030184610BD012010BD00BF4B
:10032C00F8FFFDBF00000240F0B590F82040012C12
:10033C0035D0012490F8215080F82040A5424FF090
:10034C0000064FF0020428D180F82140046886632F
:10035C002668076C26F001062660C66BBD407560EA
:10036C00636043680568102BC36A0BBFA260A16071
:10037C00E160E2604BB1236843F00E0323602B680D
:10038C00002043F001032B60F0BD236823F004032D
:10039C002360236843F00A03F0E780F82060022012
:1003AC00F0BD000090F8213010B5022B03D00423CF
:1003BC008363012010BD03681A6822F00E021A60D4
:1003CC001A6822F001021A60184A93421FD01432A4
:1003DC0093421ED0143293421DD0143293421DD03E
:1003EC00143293421DD0143293420CBF4FF480133D
:1003FC004FF080730E4A00245360012380F82130A3
:10040C00436B80F820407BB19847204610BD0123F8
:10041C00F0E71023EEE74FF48073EBE74FF48053D3
:10042C00E8E74FF48033E5E7184610BD08000240BA
:10043C000000024070B40425C66B026C346803687B
:10044C0095402542196832D04D0730D51A6896066A
:10045C005EBF1A6822F004021A603E4A934219D019
:10046C001432934218D01432934217D01432934260
:10047C0017D01432934217D0143293420CBF4FF45E
:10048C0080034FF08063344A5360C36A002B5ED004
:10049C0070BC18470423F6E74023F4E74FF480635D
:1004AC00F1E74FF48043EEE74FF48023EBE70225AE
:1004BC009540254235D08D0733D51A68940606D45D
:1004CC001A6822F00A021A60012280F82120214ABF
:1004DC00934219D01432934218D01432934217D04D
:1004EC001432934217D01432934217D014329342E1
:1004FC000CBF4FF400134FF00073174A53600023E6
:10050C0080F82030836AC1E70223F6E72023F4E762
:10051C004FF40073F1E74FF40053EEE74FF4003360
:10052C00EBE708259540254211D009070FD519682E
:10053C0021F00E011960012303FA02F27260836349
:10054C0080F82130002380F82030036B9EE770BCCC
:10055C00704700BF08000240000002402DE9F74F31
:10056C0000242646664BDFF8A8E1DFF8A8C10A682C
:10057C0032FA06F502D103B0BDE8F08F4FF0010856
:10058C0008FA06F802EA080290457FD14D68122D50
:10059C0000F0AA8000F28380022D00F0A28077D8B0
:1005AC00002D00F08980012D00F099804FF00F098B
:1005BC00FF2A93BF824606F18045083DD0F800B073
:1005CC0092BFB500D0F804B0AD0009FA05F82BEADB
:1005DC00080804FA05F588BF00F1040A48EA050585
:1005EC00CAF80050D1F804A01AF0805F4ED0454DE7
:1005FC00444FAD6926F0030845F00105BD61BD69A6
:10060C0008F1804805F00105019508F5803806F0E1
:10061C00030B019D4FEA8B0BD8F8085009FA0BF924
:10062C0025EA0909384DA84263D005F58065A84232
:10063C0061D005F58065A8425FD005F58065A842BC
:10064C000CBF0325042505FA0BF545EA0905C8F886
:10065C0008501D681AF4803F14BF154395431D6064
:10066C005D681AF4003F14BF154395435D609D68A7
:10067C001AF4801F14BF154395439D60DD681AF46E
:10068C00001F14BF2A4325EA0202DA6001366EE726
:10069C00032D22D0112D89D1CC68043486E71B4F51
:1006AC00BD4209D012D8DFF870904D4504D009F541
:1006BC0080394D457FF47AAF8C68C4B1012C0CBFE6
:1006CC00C0F81080C0F8148008246FE77545F3D08B
:1006DC006545F1D0DFF84490EBE7002466E7CC6881
:1006EC0064E7CC68083461E7CC680C345EE704241A
:1006FC005CE70025A7E70125A5E70225A3E700BFD6
:10070C0000040140001002400008014000002110CC
:10071C0000003110000032100000111000002210F7
:10072C000AB1016170470904FBE700002DE9F341B0
:10073C00054608B901203CE00368DB0710D42B68A0
:10074C009F075DD42B68190700F194802B685A071A
:10075C0000F1BE80E869002840F02C81002028E0E0
:10076C008F4C636803F00C03042B07D0636803F011
:10077C000C03082B09D16368DE0306D523689C03A0
:10078C00DDD56B68002BDAD1D4E76B68B3F5803F0D
:10079C0012D1236843F480332360FFF713FD064620
:1007AC0023689803CBD4FFF70DFD801B6428F7D981
:1007BC00032002B0BDE8F0819BB9236823F4803399
:1007CC002360236823F480232360FFF7FBFC064699
:1007DC0023689903B3D5FFF7F5FC801B6428F7D980
:1007EC00E6E7B3F5A02F236803D143F480232360FD
:1007FC00CFE723F480332360236823F48023CBE7F3
:10080C00674C636813F00C0F07D0636803F00C039C
:10081C00082B10D16368DA030DD423689B0702D52B
:10082C002B69012B86D123686A6923F0F80343EA0C
:10083C00C203236086E72A695A4B6AB101221A6007
:10084C00FFF7C0FC064623689F07ECD4FFF7BAFC01
:10085C00801B0228F7D9ABE71A60FFF7B3FC0646FA
:10086C00236898077FF56EAFFFF7ACFC801B02285E
:10087C00F6D99DE7AA694A4C4B4BDAB101221A60B2
:10088C00FFF7A0FC0646636A9B070DD54FF4FA529E
:10089C00464B1B68B3FBF2F3019300BF019B5A1E3E
:1008AC000192002BF9D151E7FFF78CFC801B022839
:1008BC00E9D97DE71A60FFF785FC0646636A9F0756
:1008CC007FF544AFFFF77EFC801B0228F6D96FE75B
:1008DC00334CE369D80024D40127E36943F08053F7
:1008EC00E361E36903F080530093009B304E33685F
:1008FC00D90518D5EB68012B26D1236A43F00103E7
:10090C002362FFF75FFC41F288368046236A9B071F
:10091C003FD5002F3FF41EAFE36923F08053E36112
:10092C0018E70027E2E7336843F480733360FFF77E
:10093C0049FC80463368DA05DCD4FFF743FCA0EBB6
:10094C0008006428F6D933E7ABB9236A41F288383A
:10095C0023F001032362236A23F004032362FFF7CD
:10096C0031FC0646236A9807D3D5FFF72BFC801B76
:10097C004045F7D91CE7052B236A03D143F0040348
:10098C002362BAE723F001032362236A23F00403F2
:10099C00B6E7FFF717FCA0EB0800B042B6D907E7A3
:1009AC000010024000004242800442420C00002031
:1009BC00007000402A4B5A681C4602F00C02082AB0
:1009CC003DD00023274E022833602BD1FFF7FAFBD2
:1009DC000746236899011FD42B6AB3F5803F05D1D4
:1009EC006268A96822F400320A436260696A62682C
:1009FC000B4322F474121343636001233360FFF73B
:100A0C00E1FB054623689A013FF5A8AEFFF7DAFB38
:100A1C00401B0228F6D9CBE6FFF7D4FBC01B0228FB
:100A2C00D7D9C5E6FFF7CEFB054623689B017FF5BA
:100A3C0095AEFFF7C7FB401B0228F6D9B8E6012894
:100A4C003FF4B7AE58682B6A00F480329A427FF4B8
:100A5C0071AE6B6A00F47010C01A18BF0120A8E6C2
:100A6C00001002406000424230B5194B87B002AC16
:100A7C0003F11005224618685968083303C2AB42CB
:100A8C001446F7D101238DF80430022311498DF857
:100A9C0005304B6803F00C02082A17D1C3F38342CC
:100AAC0006A80244DB0312F8102C0CD54B680A483C
:100ABC00C3F34043504306AA134413F8143CB0FB51
:100ACC00F3F007B030BD05485043FAE70248F8E7A9
:100ADC00C81A00080010024000127A0000093D00FC
:100AEC002DE9F0410D46044610B90120BDE8F08116
:100AFC00454A136803F007038B4229D321688E07FC
:100B0C0031D4CA0744D4404A136803F007039D420A
:100B1C0067D322683D4D12F0040F6ED1130706D532
:100B2C006B68226923F4605343EAC2036B60FFF7DE
:100B3C009BFF6B68364AC3F30313D35CD840354B29
:100B4C001860354B1868FFF7FBFA0020BDE8F08100
:100B5C00136823F007030B431360136803F00703B8
:100B6C009942C2D1CAE7294B11F0040F1EBF5A6833
:100B7C0042F4E0625A60080742BF5A6842F460527D
:100B8C005A605A68A06822F0F00202435A60B8E733
:100B9C0062681E4E012A33681BD113F4003FA4D0A7
:100BAC00736841F2883823F0030313437360FFF733
:100BBC0009FB07467368626803F00C03B3EB820F02
:100BCC00A1D0FFF7FFFAC01B4045F3D90320BDE8C5
:100BDC00F081022A02D113F0007FE0E713F0020F3C
:100BEC00DDE7136823F007032B431360136803F04E
:100BFC0007039D427FF479AF8BE76B68E16823F4C0
:100C0C00E0630B436B6089E7002002400010024058
:100C1C00EC1A00080C00002004000020044B054ACC
:100C2C005B68C3F30223D35C034A1068D840704757
:100C3C0000100240FC1A00080C000020044B054A6E
:100C4C005B68C3F3C223D35C034A1068D840704777
:100C5C0000100240FC1A00080C0000200368DA683F
:100C6C0022F49072DA605A6922F001025A61202350
:100C7C0080F83A307047000038B505460368C16803
:100C8C001A69192422F440520A431A6182680069D5
:100C9C00D9680243686921F4B05121F00C01024378
:100CAC000A43DA605A69A96922F440720A435A610C
:100CBC000D4A934214D1FFF7C1FF60436C68642264
:100CCC00A400B0FBF4F0B0FBF2F402FB14031B0124
:100CDC003233B3FBF2F3296803EB04138B6038BD9A
:100CEC00FFF79CFFE9E700BF00380140F8B5044668
:100CFC000E4617461D4621680B6836EA030301D1E0
:100D0C000020F8BD6B1CF7D095B923680320DA6876
:100D1C0022F4D072DA605A6922F001025A6120235F
:100D2C0084F8393084F83A30002384F83830F8BD30
:100D3C00FFF748FAC01B8542DDD2E6E710B5044642
:100D4C0040B390F8393003F0FF021BB980F838201B
:100D5C0000F0F4FC2423226884F83930D368204650
:100D6C0023F40053D360FFF787FF236800201A6930
:100D7C0022F490421A615A6922F02A025A61DA6806
:100D8C0042F40052DA602023E06384F8393084F8AE
:100D9C003A3010BD012010BD2DE9F0411F4690F8EE
:100DAC0039300446202B0D4690464ED1002949D0AF
:100DBC00002A47D090F83830012B46D0012380F818
:100DCC0038300023C363212380F83930FFF7FAF958
:100DDC000646A4F82480A4F82680E38C9BB26BB959
:100DEC003B46324640212046FFF780FFA8B920231E
:100DFC0084F8380084F83930BDE8F081E38C324651
:100E0C00013B9BB2E384A3688021B3F5805F20464D
:100E1C003B460ED1FFF76AFF10B10320BDE8F0810D
:100E2C002B882268C3F308035360236943B9023546
:100E3C00D3E7FFF75BFF0028EFD123682A785A60CD
:100E4C000135CAE70120BDE8F0810220BDE8F08140
:100E5C00134690F83A2073B5202A054638D100295C
:100E6C0034D0002B32D090F83820012A30D0012217
:100E7C00002480F83820222281628385C46380F8A4
:100E8C003A20406B134A2E688262134A4463C26252
:100E9C00124A02630A46311DFFF746FA20462B68B8
:100EAC0001941A6801925A6885F838400192019AA7
:100EBC00DA6842F48072DA605A6942F001025A61CF
:100ECC005A6942F040025A6102B070BD0120FBE742
:100EDC000220F9E7F10E0008A70F0008B30F000875
:100EEC007047704708B50368426A1B6813F020030B
:100EFC0010D1D3851368D96821F48071D9605969F0
:100F0C0021F001015961596921F0400159612023F7
:100F1C0082F83A301046FFF7E4FF08BD90F83A30FB
:100F2C0010B5222B36D183680169B3F5805F026856
:100F3C00836A23D15268E9B9C2F3080223F8022B61
:100F4C008362C48D013CA4B2C4858CB90368DA6891
:100F5C0022F02002DA60DA6822F48072DA605A69D0
:100F6C0022F001025A61202380F83A30FFF7B9FFD2
:100F7C00002010BDD2B223F8012BE1E721B9591C96
:100F8C00526881621A70DCE75268591C816202F067
:100F9C007F02F7E7022010BD704708B5406AFFF7E3
:100FAC00FBFF08BD7047416A08B50B685A6991F898
:100FBC00390021280AD1120608D50022CA84DA6821
:100FCC0022F0C002DA60202281F839205B6991F8A6
:100FDC003A20222A06D15B0604D500230846CB858D
:100FEC00FFF73CFECB6B084643F01003CB63FFF7D7
:100FFC00D9FF08BD036870B51A6804461607D9688E
:10100C005D6907D196065AD58D0658D5BDE8704056
:10101C00FFF784BF15F0010502D111F4907F4ED07B
:10102C00D30705D5CE0542BFE36B43F00103E36361
:10103C00500704D51DB1E36B43F00203E363930740
:10104C0004D51DB1E36B43F00403E363160704D529
:10105C001DB1E36B43F00803E363E36B002B66D035
:10106C00950604D5880602D52046FFF757FF23685E
:10107C0020465D69E26B110702D415F040051AD0C9
:10108C00FFF7ECFD23685A69520610D55A69606B5C
:10109C0022F040025A6150B1254B4363FFF782F9AD
:1010AC00002844D0606BBDE87040436B1847204665
:1010BC00FFF778FF70BDFFF775FFE56370BD16068F
:1010CC0027D50D0625D594F83920212A2FD1A268D1
:1010DC00B2F5805F226A17D11188C1F308015960FB
:1010EC00216979B902322262E28C013A92B2E2842D
:1010FC00EAB9DA6822F08002DA60DA6842F040027B
:10110C00DA6070BD0132EEE7511C216212785A6030
:10111C00EAE750060BD54A0609D5DA68204622F0D4
:10112C004002DA60202384F83930FFF7D9FE70BD15
:10113C004111000808B50023406AC385C384FFF73A
:10114C0031FF08BD0022134630B50849555CC45C1C
:10115C00A54205D101339BB2C45C0CB9D8B230BDE9
:10116C000132B2F5807FF1D130BD00BF9402002076
:10117C002DE9F04F036887B01A688146920740F159
:10118C008D805A4A934200F08C801432934200F0C6
:10119C008A801432934200F088801432934200F01B
:1011AC0087801432934200F08680143293420CBF35
:1011BC004FF400124FF00072D9F83C104C4E0091D5
:1011CC004C494D4F4A605D683368C5F58075C3F571
:1011DC008074AC4228BF2C46484ADFF83CA1DFF8AB
:1011EC0040B115609046394622460AEB0300CBF815
:1011FC000040019300F042FC019B414923443360C1
:10120C000B78404A0133DBB20B703F492D1B08466B
:10121C003C44146030F8024B022B0068ADF80840D7
:10122C00039051F8060F04AC4968C8F8005003C489
:10123C00144643D0032B47D0012B4BD100F048F977
:10124C000A23022202A93148FFF7A6FD00F048F953
:10125C0000F056F92E48FFF775FF2E4BD8F80050CA
:10126C0018705DB12A4621682B4800F007FC3560E8
:10127C0000F03EF900F034F900F042F93F23D9F8C0
:10128C0040209340009A93604FF48072D9F800305C
:10129C00DF605A601A6842F001021A6007B0BDE8BC
:1012AC00F08F022288E7202286E74FF4007283E752
:1012BC004FF4005280E74FF400327DE700F008F95C
:1012CC000A23042203A9BEE700F002F90A2308222C
:1012DC0004A9B8E700F00CF9DBF8002031680A2308
:1012EC00891A514492B20D48AEE700BF0800024083
:1012FC003400002000000240940200204000002036
:10130C002C00002038000020D81A000854020020BD
:10131C00E61A00082E000020CC00002094030020C8
:10132C003C000020036807B50A461968C9060CD5AD
:10133C00196801915B68116801930B6823F0010334
:10134C000B6001461046FFF713FF03B05DF804FB7A
:10135C0003682DE9F74F1A68804692077CD5464AF8
:10136C0093427CD0143293427BD0143293427AD085
:10137C00143293427AD0143293427AD0143293427C
:10138C000CBF4FF400124FF00072D8F83C10DFF88D
:10139C0008B100913949DBF800704A605D68C7F507
:1013AC008074C5F58075AC4228BF2C46DFF8ECA0E4
:1013BC00DFF8EC90324E334B22463146CAF80050DF
:1013CC0009EB07002D1B1C60019300F057FBCAF8BA
:1013DC0000502D4D274434442C60CBF8007000F0A5
:1013EC0077F8019BDBF800101A682848891A0A2341
:1013FC0092B24944FFF7D0FC00F082F800F070F88C
:10140C002348FFF79FFE234BDAF8004018709CB17D
:10141C0022462968484600F031FBCBF8004000F02A
:10142C0057F80A23BAF8002049461848FFF7B4FCCD
:10143C0000F066F800F054F83F23D8F840209340B1
:10144C00009A93604FF48072D8F80030DE605A60D6
:10145C001A6842F001021A6003B0BDE8F08F022254
:10146C0093E7202291E74FF400728EE74FF400527D
:10147C008BE74FF4003288E708000240000002407E
:10148C00940200203C000020380000205402002070
:10149C00E61A00082E000020340000204000002036
:1014AC00CC000020036807B50A461968C9060CD59C
:1014BC00196801915B68116801930B6823F00103B3
:1014CC000B6001461046FFF743FF03B05DF804FBC9
:1014DC0001224FF400410148FFF722B9000C0140F2
:1014EC0000224FF400410148FFF71AB9000C0140EB
:1014FC0001224FF480410148FFF712B9000C014062
:10150C0000224FF480410148FFF70AB9000C01405A
:10151C0000B591B02822002106A800F0BAFA1422D6
:10152C00002101A800F0B5FA0223069301230A93C7
:10153C00102306A80B93FFF7F9F800210F2301A83D
:10154C0001930291039104910591FFF7C9FA11B02F
:10155C005DF804FBBFB55D4DFEF716FEFFF7D8FF37
:10156C001022002102A800F094FAAB69002243F08B
:10157C000403AB61AB694FF4404103F004030093E7
:10158C00009BAB69524843F00803AB61AB69002484
:10159C0003F008030193019BFFF7C2F84FF440439B
:1015AC0002930123039302230C274FF4964A4FF422
:1015BC0080594FF4806802A9454804940593FEF7BE
:1015CC00CDFF6B69224643F001036B616B692146C9
:1015DC0003F0010302930E20029BFEF71DFE0E206A
:1015EC00FEF74EFE224621460F20FEF715FE0F2079
:1015FC00FEF746FE224621461020FEF70DFE102077
:10160C00FEF73EFE224621461120324DFEF704FE27
:10161C001120FEF735FE304B304E284685E8080485
:10162C00EC606F61AC61EC61C5F80890C5F8108096
:10163C00FFF784FB2A4B304686E80804F460776198
:10164C00B461F461C6F80890C6F81080FFF776FB19
:10165C004FF47A70FEF7BCFDFFF73AFF21490A23DD
:10166C0004222846FFF798FB2A681F4FD3681F4CAB
:10167C0043F01003D3603268D36843F01003D36097
:10168C003A68136843F0020313602268136843F04E
:10169C0002031360FFF724FF4FF4807214492846AD
:1016AC00FFF7D6FBFFF72CFF4FF480721049304642
:1016BC00FFF7CEFB3A68136823F00403136022682B
:1016CC00136823F004031360FEE700BF0010024010
:1016DC00000C01405402002000380140940300200B
:1016EC000044004008000020CC01002044000020F1
:1016FC0094020020704700000E4B82B09A6942F0B1
:10170C0001029A619A6902F001020092009ADA6968
:10171C0042F08052DA61DB69074A03F0805301938F
:10172C00019B536823F0E06343F08063536002B085
:10173C00704700BF0010024000000140102270B53D
:10174C00054688B00DEB0200002100F0A2F92B68D1
:10175C005B4A93425AD15B4B04A99A695A4842F4AA
:10176C0080429A619A69002602F480420092009AA3
:10177C009A69564C42F004029A619B6903F0040387
:10178C000193019B4FF400730493022305930323ED
:10179C000793FEF7E3FE4FF480634B4804A90493D0
:1017AC0005960696FEF7DAFE494B204684E848007B
:1017BC008023A660E36026616661A661E661FEF7A0
:1017CC0083FD08B1FFF796FF4FF0100C414B6C6393
:1017DC006562414C802284E8081000232046A360F7
:1017EC00E26023616361A361E361FEF76DFD08B103
:1017FC00FFF780FF002225202C6311466562FEF75F
:10180C000BFD2520FEF73CFD08B070BD334A93421A
:10181C00FAD12C4B04A9DA692B4842F40032DA6174
:10182C00DA69002602F400320292029A9A692C4C70
:10183C0042F004029A619B6903F004030393039B37
:10184C00042304930223059303230793FEF786FED8
:10185C0008231D4804A9049305960696FEF77EFE00
:10186C00204B204684E848008023A660E360266174
:10187C006661A661E661FEF727FD08B1FFF73AFF46
:10188C004FF0100C184B6C636562184C802284E886
:10189C00081000232046A360E26023616361A3610A
:1018AC00E361FEF711FD08B1FFF724FF00222620AB
:1018BC002C6311466562FEF7AFFC2620A2E700BF41
:1018CC00003801400010024000080140CC0100200B
:1018DC0058000240440002408800002000440040B0
:1018EC00440000206C0002408000024010020020E6
:1018FC007047FEE7FEE7FEE7FEE77047704770476C
:10190C00FEF754BC0148FEF795BD00BF88000020CF
:10191C0010B5054C2046FEF78DFD2046BDE8104065
:10192C000249FFF725BC00BFCC0100205402002067
:10193C0010B5054C2046FEF77DFD2046BDE8104055
:10194C000249FFF705BD00BF4400002094030020AE
:10195C000148FEF76FBD00BF1002002010B5054C0A
:10196C002046FFF747FB2046BDE810400249FFF731
:10197C00D9BC00BF54020020CC01002010B5054C8E
:10198C002046FFF737FB2046BDE810400249FFF721
:10199C0089BD00BF94030020440000200F4B1A683F
:1019AC0042F001021A6059680D4A0A405A601A68DE
:1019BC0022F0847222F480321A601A6822F4802297
:1019CC001A605A6822F4FE025A604FF41F029A60A1
:1019DC004FF00062034B9A60704700BF001002404A
:1019EC000000FFF800ED00E0002103E00B4B5B581A
:1019FC00435004310A480B4B42189A42F6D30A4A18
:101A0C0002E0002342F8043B084B9A42F9D3FFF75B
:101A1C00C5FF00F00FF8FFF79DFD70470C1B000889
:101A2C00000000201000002010000020D403002033
:101A3C00FEE7000070B500250C4E0D4CA41BA41045
:101A4C00A54209D100F02EF800250A4E0A4CA41B21
:101A5C00A410A54205D170BD56F825309847013524
:101A6C00EEE756F8253098470135F2E7041B0008DD
:101A7C00041B0008041B0008081B000810B5431EBB
:101A8C000A44914200D110BD11F8014B03F8014FEB
:101A9C00F7E703460244934200D1704703F8011B59
:101AAC00F9E70000F8B500BFF8BC08BC9E467047CB
:0C1ABC00F8B500BFF8BC08BC9E4670479F
:101AC80002030405060708090A0B0C0D0E0F101077
:101AD800103104404105024041303036300370690E
:101AE8006E6B750000000000000000000102030496
:0C1AF800060708090000000001020304BA
:041B040031010008A3
:041B08000D010008C3
:101B0C000100000010000000044051050024F40006
:04000005080019F5E1
:00000001FF
