:020000040800F2
:1000000000500020BD16000805160008071600085D
:10001000091600080B1600080D1600080000000065
:100020000000000000000000000000000F160008A3
:10003000111600080000000013160008151600082D
:100040000517000805170008051700080517000820
:100050000517000805170008051700080517000810
:100060000517000805170008051700080517000800
:1000700005170008051700081916000825160008BE
:100080003516000845160008051700080517000872
:1000900005170008051700080517000805170008D0
:1000A00005170008051700080517000805170008C0
:1000B00005170008051700080517000805170008B0
:1000C00005170008051700080517000805170008A0
:1000D00005170008511600086116000805170008EA
:1000E00005170008051700080517000800000000A4
:1000F0000000000000000000000000000000000000
:0C01000000000000000000005FF808F1A3
:10010C0010B5054C237833B9044B13B10448AFF345
:10011C0000800123237010BD10000020000000009F
:10012C007817000808B5034B1BB103490348AFF31C
:10013C00008008BD000000001400002078170008A3
:10014C0038B50E4B054618784FF47A73B3FBF0F3C1
:10015C000B4A1068B0FBF3F000F08EF8044658B967
:10016C000F2D09D8024629464FF0FF3000F042F817
:10017C00044B20461D6038BD012038BD0000002016
:10018C000C00002004000020074A08B51368032067
:10019C0043F01003136000F01BF80020FFF7D0FFB2
:1001AC0001F02EF9002008BD00200240034A044B48
:1001BC0011681B780B441360704700BF300000209F
:1001CC0000000020014B1868704700BF3000002071
:1001DC00074A0002D36800F4E06023F4E0631B04D8
:1001EC001B0C43F0BF6343F400330343D3607047ED
:1001FC0000ED00E0174B30B5DC68C4F30224C4F109
:10020C000703251D042B28BF0423062D4FF00105E1
:10021C0098BF002405FA03F303F1FF3388BF033CB6
:10022C001940A14005FA04F4013C2240002842EA9E
:10023C0001024FEA0212A9BF00F16040064BD2B294
:10024C0000F56140BBBF00F00F00D2B280F8002374
:10025C001A5430BD00ED00E014ED00E0002808DB7E
:10026C000123420900F01F0003FA00F0014B43F890
:10027C002200704700E100E00138B0F1807F0AD223
:10028C00F021064B064A586082F823100020072202
:10029C0098601A6070470120704700BF10E000E0C2
:1002AC0000ED00E010B530B314220168134B8468E4
:1002BC000B44B3FBF2F39B000364114B0A68C3635A
:1002CC00436822F47F522343C46822F03002234354
:1002DC00046923434469234384692343C469234346
:1002EC0013430B600122002380F82120836380F8E4
:1002FC002030184610BD012010BD00BFF8FFFDBF17
:10030C0000000240F0B590F82040012C35D00124BB
:10031C0090F8215080F82040A5424FF000064FF095
:10032C00020428D180F82140046886632668076C93
:10033C0026F001062660C66BBD407560636043689D
:10034C000568102BC36A0BBFA260A160E160E2607C
:10035C004BB1236843F00E0323602B68002043F05D
:10036C0001032B60F0BD236823F004032360236892
:10037C0043F00A03F0E780F820600220F0BD000093
:10038C0070B40425C66B026C346803689540254232
:10039C00196832D04D0730D51A6896065EBF1A68B8
:1003AC0022F004021A603E4A934219D0143293424E
:1003BC0018D01432934217D01432934217D01432FF
:1003CC00934217D0143293420CBF4FF480034FF07A
:1003DC008063344A5360C36A002B5ED070BC1847EC
:1003EC000423F6E74023F4E74FF48063F1E74FF47E
:1003FC008043EEE74FF48023EBE70225954025423E
:10040C0035D08D0733D51A68940606D41A6822F0B5
:10041C000A021A60012280F82120214A934219D045
:10042C001432934218D01432934217D014329342A0
:10043C0017D01432934217D0143293420CBF4FF49E
:10044C0000134FF00073174A5360002380F82030DC
:10045C00836AC1E70223F6E72023F4E74FF4007325
:10046C00F1E74FF40053EEE74FF40033EBE70825C8
:10047C009540254211D009070FD5196821F00E01BE
:10048C001960012303FA02F27260836380F8213051
:10049C00002380F82030036B9EE770BC704700BFD0
:1004AC0008000240000002402DE9F74F00242646C8
:1004BC00664BDFF8A8E1DFF8A8C10A6832FA06F546
:1004CC0002D103B0BDE8F08F4FF0010808FA06F82E
:1004DC0002EA080290457FD14D68122D00F0AA80E7
:1004EC0000F28380022D00F0A28077D8002D00F05E
:1004FC008980012D00F099804FF00F09FF2A93BFDE
:10050C00824606F18045083DD0F800B092BFB50098
:10051C00D0F804B0AD0009FA05F82BEA080804FA83
:10052C0005F588BF00F1040A48EA0505CAF8005031
:10053C00D1F804A01AF0805F4ED0454D444FAD6900
:10054C0026F0030845F00105BD61BD6908F180483E
:10055C0005F00105019508F5803806F0030B019DA7
:10056C004FEA8B0BD8F8085009FA0BF925EA090960
:10057C00384DA84263D005F58065A84261D005F5D9
:10058C008065A8425FD005F58065A8420CBF0325A5
:10059C00042505FA0BF545EA0905C8F808501D684D
:1005AC001AF4803F14BF154395431D605D681AF41F
:1005BC00003F14BF154395435D609D681AF4801F7E
:1005CC0014BF154395439D60DD681AF4001F14BFDA
:1005DC002A4325EA0202DA6001366EE7032D22D0A7
:1005EC00112D89D1CC68043486E71B4FBD4209D04C
:1005FC0012D8DFF870904D4504D009F580394D457F
:10060C007FF47AAF8C68C4B1012C0CBFC0F8108099
:10061C00C0F8148008246FE77545F3D06545F1D018
:10062C00DFF84490EBE7002466E7CC6864E7CC681D
:10063C00083461E7CC680C345EE704245CE70025E1
:10064C00A7E70125A5E70225A3E700BF00040140A9
:10065C000010024000080140000021100000311081
:10066C000000321000001110000022100AB10161CC
:10067C0070470904FBE700002DE9F341054608B972
:10068C0001203CE00368DB0710D42B689F075DD486
:10069C002B68190700F194802B685A0700F1BE8073
:1006AC00E869002840F02C81002028E08F4C63681A
:1006BC0003F00C03042B07D0636803F00C03082B26
:1006CC0009D16368DE0306D523689C03DDD56B680E
:1006DC00002BDAD1D4E76B68B3F5803F12D12368D5
:1006EC0043F480332360FFF76DFD064623689803BF
:1006FC00CBD4FFF767FD801B6428F7D9032002B029
:10070C00BDE8F0819BB9236823F480332360236810
:10071C0023F480232360FFF755FD064623689903D5
:10072C00B3D5FFF74FFD801B6428F7D9E6E7B3F587
:10073C00A02F236803D143F480232360CFE723F455
:10074C0080332360236823F48023CBE7674C6368F2
:10075C0013F00C0F07D0636803F00C03082B10D1B7
:10076C006368DA030DD423689B0702D52B69012B30
:10077C0086D123686A6923F0F80343EAC203236035
:10078C0086E72A695A4B6AB101221A60FFF71AFDF3
:10079C00064623689F07ECD4FFF714FD801B022844
:1007AC00F7D9ABE71A60FFF70DFD064623689807EB
:1007BC007FF56EAFFFF706FD801B0228F6D99DE78B
:1007CC00AA694A4C4B4BDAB101221A60FFF7FAFCCA
:1007DC000646636A9B070DD54FF4FA52464B1B68CD
:1007EC00B3FBF2F3019300BF019B5A1E0192002B45
:1007FC00F9D151E7FFF7E6FC801B0228E9D97DE728
:10080C001A60FFF7DFFC0646636A9F077FF544AF6B
:10081C00FFF7D8FC801B0228F6D96FE7334CE3694D
:10082C00D80024D40127E36943F08053E361E369E2
:10083C0003F080530093009B304E3368D90518D5D4
:10084C00EB68012B26D1236A43F001032362FFF7E7
:10085C00B9FC41F288368046236A9B073FD5002FAE
:10086C003FF41EAFE36923F08053E36118E70027E0
:10087C00E2E7336843F480733360FFF7A3FC8046F0
:10088C003368DA05DCD4FFF79DFCA0EB0800642884
:10089C00F6D933E7ABB9236A41F2883823F0010368
:1008AC002362236A23F004032362FFF78BFC0646C2
:1008BC00236A9807D3D5FFF785FC801B4045F7D9F1
:1008CC001CE7052B236A03D143F004032362BAE728
:1008DC0023F001032362236A23F00403B6E7FFF736
:1008EC0071FCA0EB0800B042B6D907E7001002403B
:1008FC0000004242800442420C0000200070004084
:10090C002A4B5A681C4602F00C02082A3DD00023E0
:10091C00274E022833602BD1FFF754FC074623687F
:10092C0099011FD42B6AB3F5803F05D16268A96881
:10093C0022F400320A436260696A62680B4322F453
:10094C0074121343636001233360FFF73BFC0546CD
:10095C0023689A013FF5A8AEFFF734FC401B022830
:10096C00F6D9CBE6FFF72EFCC01B0228D7D9C5E67B
:10097C00FFF728FC054623689B017FF595AEFFF732
:10098C0021FC401B0228F6D9B8E601283FF4B7AE8B
:10099C0058682B6A00F480329A427FF471AE6B6A0D
:1009AC0000F47010C01A18BF0120A8E60010024015
:1009BC006000424230B5194B87B002AC03F1100510
:1009CC00224618685968083303C2AB421446F7D163
:1009DC0001238DF80430022311498DF805304B6842
:1009EC0003F00C02082A17D1C3F3834206A8024471
:1009FC00DB0312F8102C0CD54B680A48C3F34043A8
:100A0C00504306AA134413F8143CB0FBF3F007B0A0
:100A1C0030BD05485043FAE70248F8E79017000844
:100A2C000010024000127A0000093D002DE9F0414F
:100A3C000D46044610B90120BDE8F081454A136803
:100A4C0003F007038B4229D321688E0731D4CA07E0
:100A5C0044D4404A136803F007039D4267D32268CD
:100A6C003D4D12F0040F6ED1130706D56B68226949
:100A7C0023F4605343EAC2036B60FFF79BFF6B6880
:100A8C00364AC3F30313D35CD840354B1860354B4F
:100A9C001868FFF755FB0020BDE8F081136823F0C0
:100AAC0007030B431360136803F007039942C2D189
:100ABC00CAE7294B11F0040F1EBF5A6842F4E062DA
:100ACC005A60080742BF5A6842F460525A605A682A
:100ADC00A06822F0F00202435A60B8E762681E4E2A
:100AEC00012A33681BD113F4003FA4D0736841F280
:100AFC00883823F0030313437360FFF763FB074647
:100B0C007368626803F00C03B3EB820FA1D0FFF79C
:100B1C0059FBC01B4045F3D90320BDE8F081022AE4
:100B2C0002D113F0007FE0E713F0020FDDE713684A
:100B3C0023F007032B431360136803F007039D4254
:100B4C007FF479AF8BE76B68E16823F4E0630B43C8
:100B5C006B6089E70020024000100240A6170008D5
:100B6C000C00002004000020044B054A5B68C3F312
:100B7C000223D35C034A1068D8407047001002402F
:100B8C00B61700080C000020044B054A5B68C3F341
:100B9C00C223D35C034A1068D8407047001002404F
:100BAC00B61700080C0000200368DA6822F4907273
:100BBC00DA605A6922F001025A61202380F83A3037
:100BCC007047000038B505460368C1681A691924D6
:100BDC0022F440520A431A6182680069D9680243C0
:100BEC00686921F4B05121F00C0102430A43DA6028
:100BFC005A69A96922F440720A435A610D4A934218
:100C0C0014D1FFF7C1FF60436C686422A400B0FBF1
:100C1C00F4F0B0FBF2F402FB14031B013233B3FB10
:100C2C00F2F3296803EB04138B6038BDFFF79CFFCC
:100C3C00E9E700BF00380140F8B504460E461746F8
:100C4C001D4621680B6836EA030301D10020F8BD6C
:100C5C006B1CF7D095B923680320DA6822F4D072A4
:100C6C00DA605A6922F001025A61202384F8393083
:100C7C0084F83A30002384F83830F8BDFFF7A2FA34
:100C8C00C01B8542DDD2E6E710B5044640B390F8B0
:100C9C00393003F0FF021BB980F8382000F0D2FB8A
:100CAC002423226884F83930D368204623F4005377
:100CBC00D360FFF787FF236800201A6922F4904263
:100CCC001A615A6922F02A025A61DA6842F4005217
:100CDC00DA602023E06384F8393084F83A3010BDB0
:100CEC00012010BD2DE9F0411F4690F83930044623
:100CFC00202B0D4690464ED1002949D0002A47D0D2
:100D0C0090F83830012B46D0012380F8383000237E
:100D1C00C363212380F83930FFF754FA0646A4F850
:100D2C002480A4F82680E38C9BB26BB93B463246F8
:100D3C0040212046FFF780FFA8B9202384F8380013
:100D4C0084F83930BDE8F081E38C3246013B9BB22C
:100D5C00E384A3688021B3F5805F20463B460ED127
:100D6C00FFF76AFF10B10320BDE8F0812B882268E1
:100D7C00C3F308035360236943B90235D3E7FFF784
:100D8C005BFF0028EFD123682A785A600135CAE747
:100D9C000120BDE8F0810220BDE8F081134690F8F7
:100DAC003A2073B5202A054638D1002934D0002BBF
:100DBC0032D090F83820012A30D00122002480F85B
:100DCC003820222281628385C46380F83A20406BEC
:100DDC00134A2E688262134A4463C262124A026347
:100DEC000A46311DFFF78EFA20462B6801941A68CB
:100DFC0001925A6885F838400192019ADA6842F4F7
:100E0C008072DA605A6942F001025A615A6942F002
:100E1C0040025A6102B070BD0120FBE70220F9E7E5
:100E2C003B0E0008750E0008810E0008704708B5CF
:100E3C000368426A1B6813F0200310D1D385136832
:100E4C00D96821F48071D960596921F00101596187
:100E5C00596921F040015961202382F83A3010463B
:100E6C00FFF7E4FF08BD704708B5406AFFF7FBFFCA
:100E7C0008BD7047416A08B50B685A6991F839008A
:100E8C0021280AD1120608D50022CA84DA6822F079
:100E9C00C002DA60202281F839205B6991F83A208F
:100EAC00222A06D15B0604D500230846CB85FFF722
:100EBC007BFECB6B084643F01003CB63FFF7D9FFE7
:100ECC0008BD00000022134630B50849555CC45CCF
:100EDC00A54205D101339BB2C45C0CB9D8B230BD6C
:100EEC000132B2F5807FF1D130BD00BF94020020F9
:100EFC0003682DE9F74F1A68804692077CD5464A5D
:100F0C0093427CD0143293427BD0143293427AD0E9
:100F1C00143293427AD0143293427AD014329342E0
:100F2C000CBF4FF400124FF00072D8F83C10DFF8F1
:100F3C0008B100913949DBF800704A605D68C7F56B
:100F4C008074C5F58075AC4228BF2C46DFF8ECA048
:100F5C00DFF8EC90324E334B22463146CAF8005043
:100F6C0009EB07002D1B1C60019300F0EBFBCAF88A
:100F7C0000502D4D274434442C60CBF8007000F009
:100F8C0047F9019BDBF800101A682848891A0A23D4
:100F9C0092B24944FFF7A6FE00F032F900F040F996
:100FAC002348FFF78FFF234BDAF8004018709CB1F1
:100FBC0022462968484600F0C5FBCBF8004000F0FB
:100FCC0027F90A23BAF8002049461848FFF78AFE89
:100FDC0000F016F900F024F93F23D8F84020934094
:100FEC00009A93604FF48072D8F80030DE605A603B
:100FFC001A6842F001021A6003B0BDE8F08F0222B9
:10100C0093E7202291E74FF400728EE74FF40052E1
:10101C008BE74FF4003288E70800024000000240E2
:10102C00940200203C000020380000209403002093
:10103C00A01700082C0000203400002040000020E5
:10104C00CC000020036807B50A461968C9060CD500
:10105C00196801915B68116801930B6823F0010317
:10106C000B6001461046FFF743FF03B05DF804FB2D
:10107C0003682DE9F74F1A68804692077CD5464ADB
:10108C0093427CD0143293427BD0143293427AD068
:10109C00143293427AD0143293427AD0143293425F
:1010AC000CBF4FF400124FF00072D8F83C10DFF870
:1010BC0008B100913949DBF800704A605D68C7F5EA
:1010CC008074C5F58075AC4228BF2C46DFF8ECA0C7
:1010DC00DFF8EC90324E334B22463146CAF80050C2
:1010EC0009EB07002D1B1C60019300F02BFBCAF8C9
:1010FC0000502D4D274434442C60CBF8007000F088
:10110C0077F8019BDBF800101A682848891A0A2323
:10111C0092B24944FFF7E6FD00F082F800F070F857
:10112C002348FFF7CFFE234BDAF8004018709CB130
:10113C0022462968484600F005FBCBF8004000F039
:10114C0057F80A23BAF8002049461848FFF7CAFD99
:10115C0000F066F800F054F83F23D8F84020934094
:10116C00009A93604FF48072D8F80030DE605A60B9
:10117C001A6842F001021A6003B0BDE8F08F022237
:10118C0093E7202291E74FF400728EE74FF4005260
:10119C008BE74FF4003288E7080002400000024061
:1011AC00940200203C000020380000205402002053
:1011BC00A01700082C000020340000204000002064
:1011CC00CC000020036807B50A461968C9060CD57F
:1011DC00196801915B68116801930B6823F0010396
:1011EC000B6001461046FFF743FF03B05DF804FBAC
:1011FC0001224FF400410148FFF738BA000C0140BE
:10120C0000224FF400410148FFF730BA000C0140B6
:10121C0001224FF480410148FFF728BA000C01402D
:10122C0000224FF480410148FFF720BA000C014026
:10123C0000B591B02822002106A800F08EFA1422E5
:10124C00002101A800F089FA0223069301230A93D6
:10125C00102306A80B93FFF70FFA00210F2301A808
:10126C0001930291039104910591FFF7DFFB11B0FB
:10127C005DF804FBBFB5574DFEF786FFFFF7D8FFAF
:10128C001022002102A800F068FAAB69002243F09A
:10129C000403AB61AB694FF4404103F004030093CA
:1012AC00009BAB694C4843F00803AB61AB6900246D
:1012BC0003F008030193019BFFF7D8F94FF4404367
:1012CC0002930123039302230C274FF4964802A99F
:1012DC00414804940593FFF7E7F86B69224643F005
:1012EC0001036B616B69214603F0010302930E202D
:1012FC00029BFEF77FFF0E20FEF7B0FF2246214631
:10130C000F20FEF777FF0F20FEF7A8FF224621469D
:10131C001020FEF76FFF1020FEF7A0FF224621469B
:10132C0011202E4DFEF766FF1120FEF797FF2C4B78
:10133C002C4E284685E80801AC60EC602C616F618E
:10134C00AC61EC61FFF7A0FC274B304686E8080146
:10135C00B460F46034617761B461F461FFF794FCBC
:10136C00FFF746FF21490A2304222846FFF7BAFC5F
:10137C002A681F4FD3681F4C43F01003D3603268A8
:10138C00D36843F01003D3603A68136843F0020348
:10139C0013602268136843F002031360FFF730FFF9
:1013AC004FF4807214492846FFF7F8FCFFF738FF1A
:1013BC004FF4807210493046FFF7F0FC3A6813681E
:1013CC0023F0040313602268136823F004031360F2
:1013DC00FEE700BF00100240000C01405402002048
:1013EC000038014094030020004400400800002015
:1013FC00CC01002044000020940200207047000023
:10140C000E4B82B09A6942F001029A619A6902F01D
:10141C0001020092009ADA6942F08052DA61DB69CB
:10142C00074A03F080530193019B536823F0E06358
:10143C0043F08063536002B0704700BF001002405D
:10144C0000000140102270B5054688B00DEB02007B
:10145C00002100F082F92B685B4A93425AD15B4B16
:10146C0004A99A695A4842F480429A619A69002602
:10147C0002F480420092009A9A69564C42F004029F
:10148C009A619B6903F004030193019B4FF4007371
:10149C0004930223059303230793FFF705F84FF4F6
:1014AC0080634B4804A9049305960696FEF7FCFF4F
:1014BC00494B204684E848008023A660E3602661FF
:1014CC006661A661E661FEF7EDFE08B1FFF796FFD7
:1014DC004FF0100C414B6C636562414C802284E8E8
:1014EC00081000232046A360E26023616361A361BE
:1014FC00E361FEF7D7FE08B1FFF780FF002225203D
:10150C002C6311466562FEF775FE2520FEF7A6FEDC
:10151C0008B070BD334A9342FAD12C4B04A9DA6956
:10152C002B4842F40032DA61DA69002602F4003208
:10153C000292029A9A692C4C42F004029A619B69BD
:10154C0003F004030393039B0423049302230593E6
:10155C0003230793FEF7A8FF08231D4804A904934F
:10156C0005960696FEF7A0FF204B204684E848001F
:10157C008023A660E36026616661A661E661FEF7E2
:10158C0091FE08B1FFF73AFF4FF0100C184B6C634B
:10159C006562184C802284E8081000232046A36062
:1015AC00E26023616361A361E361FEF77BFE08B136
:1015BC00FFF724FF002226202C6311466562FEF7FC
:1015CC0019FE2620A2E700BF00380140001002409F
:1015DC0000080140CC0100205800024044000240A9
:1015EC008800002000440040440000206C000240B1
:1015FC0080000240100200207047FEE7FEE7FEE785
:10160C00FEE7704770477047FEF7D0BD0148FEF704
:10161C00B7BE00BF8800002001490248FFF768BC34
:10162C0054020020CC01002001490248FFF720BDE4
:10163C0094030020440000200148FEF7A1BE00BF27
:10164C001002002001490248FFF7FCBCCC0100202D
:10165C005402002001490248FFF7B4BD44000020A9
:10166C00940300200F4B1A6842F001021A6059686B
:10167C000D4A0A405A601A6822F0847222F48032B1
:10168C001A601A6822F480221A605A6822F4FE0248
:10169C005A604FF41F029A604FF00062034B9A603D
:1016AC00704700BF001002400000FFF800ED00E0A2
:1016BC00002103E00B4B5B58435004310A480B4BA1
:1016CC0042189A42F6D30A4A02E0002342F8043B3D
:1016DC00084B9A42F9D3FFF7C5FF00F00FF8FFF75C
:1016EC00C9FD7047C817000800000020100000203A
:1016FC0010000020D4030020FEE7000070B5002588
:10170C000C4E0D4CA41BA410A54209D100F02EF8D0
:10171C0000250A4E0A4CA41BA410A54205D170BD8D
:10172C0056F8253098470135EEE756F8253098479E
:10173C000135F2E7C0170008C0170008C0170008F1
:10174C00C417000810B5431E0A44914200D110BDC5
:10175C0011F8014B03F8014FF7E70346024493429B
:10176C0000D1704703F8011BF9E70000F8B500BF82
:10177C00F8BC08BC9E467047F8B500BFF8BC08BC66
:04178C009E467047BE
:1017900002030405060708090A0B0C0D0E0F1010B2
:1017A00070696E6B7500000000000000000001020F
:1017B00003040607080900000000010203040000FA
:0417C00031010008EB
:0417C4000D0100080B
:1017C8000100000010000000044051050024F4004E
:04000005080016BD1C
:00000001FF
